:100000000C946F010C9497010C9497010C94970138
:100010000C9497010C9497010C9497010C94970100
:100020000C9497010C9497010C94080C0C94D40A2E
:100030000C9497010C9497010C9497010C949701E0
:100040000C9497010C9497010C9497010C949701D0
:100050000C9497010C9497010C9497010C94FC0458
:100060000C9497010C9497010C9497010C949701B0
:100070000C9497010C9497010C9497010C949701A0
:100080000C9497010C9497010C9497010C94970190
:100090000C94CF030C9497010C9497010C94970146
:1000A0000C9497010C9497010C9497010A060D0685
:1000B000FC05000606062E062E062E06110615065F
:1000C00019061F0623062E06290600000002000955
:1000D0000F0000030401000C0000000000000000FD
:1000E00000000000000000000408020110408040F1
:1000F000102040804080080204018040201002014E
:10010000108010204040040404040403040502028B
:1001100002020403020202020606060606060404A0
:1001200002020204000000002300260029002C0027
:100130002F0000000000250028002B002E003100B9
:1001400000000000240027002A002D003000080BCA
:100150000002020201000904000001020200000581
:1001600024001001052401010104240206052406CF
:1001700000010705810310004009040100020A0084
:10018000000007050202400000070583024000004E
:1001900000C18081C11201000202000040412336EB
:1001A0008000010102000112010002000000404134
:1001B00023368000010102000141726475696E6F8F
:1001C000204C4C430041726475696E6F204C656F22
:1001D0006E6172646F0004030904000000000000F7
:1001E00000002A2B28000000000000000000000092
:1001F000000000000000000000002C9EB4A0A1A29E
:10020000A434A6A7A5AE362D3738271E1F202122DD
:1002100023242526B333B62EB7B89F8485868788D6
:10022000898A8B8C8D8E8F909192939495969798C6
:10023000999A9B9C9D2F3130A3AD35040506070884
:10024000090A0B0C0D0E0F101112131415161718A6
:10025000191A1B1C1DAFB1B0B5000904020001033F
:100260000000000921010100012265000705840347
:1002700040000105010902A1010901A10085010554
:1002800009190129031500250195037501810295BE
:1002900001750581030501093009310938158125EA
:1002A0007F750895038106C0C005010906A1018577
:1002B00002050719E029E715002501750195088158
:1002C00002950175088103950675081500256505D9
:1002D00007190029658100C076038D07B30D11242D
:1002E0001FBECFEFDAE0DEBFCDBF11E0A0E0B1E08E
:1002F000E2E2FEE102C005900D92A036B107D9F707
:1003000022E0A0E6B1E001C01D92A439B207E1F7F6
:1003100012E0CEEDD2E004C02297FE010E940B0F46
:10032000C83DD107C9F70E94AB070C940F0F0C947E
:100330000000CF92DF92EF92FF920F931F93E82F6E
:10034000F92F05C0015011092109310961F190818E
:1003500096239417B9F305C00150110921093109F9
:1003600011F1908196239413F7CFC12CD12CE12C5D
:10037000F12C0AC08FEFC81AD80AE80AF80A0C153F
:100380001D052E053F0579F080818623841791F3A2
:100390006C2D7D2D8E2D9F2D1F910F91FF90EF9035
:1003A000DF90CF90089560E070E080E090E01F91D2
:1003B0000F91FF90EF90DF90CF90089540E855E2C5
:1003C00060E070E08EE292E00E94870761E086E0E4
:1003D0000E942F0660E087E00E942F0666E572E02B
:1003E00082E691E00E946C0369E772E082E691E0A8
:1003F0000E94710362E170E082E691E00E946A036C
:100400006AE071E08EE292E00C940708CF92DF92EE
:10041000EF92FF9261E086E00E94680688EE93E02A
:100420000E94910560E086E00E94680620E432E4C4
:100430004FE050E061E087E00E949E066B017C0186
:100440004AE050E08EE292E00E94BC0860E171E078
:100450008EE292E00E94070885E08C9DB0018D9DA0
:10046000700D1124882777FD8095982F0E945B0ED0
:100470002DEC3CEC48EE51E40E94C00D0E94280E89
:100480004AE050E08EE292E00E94BC0863E171E035
:100490008EE292E00E94070864EF71E080E090E055
:1004A000FF90EF90DF90CF900C9469051F93CF934E
:1004B000DF93C0E0D0E082E691E00E948702181648
:1004C00019067CF482E691E00E948F02182F4AE020
:1004D00050E0682F8EE292E00E94D108C10FD11D3A
:1004E000EACFC0936001D0936101DF91CF911F915A
:1004F000089567E171E08EE292E00E94070842E011
:1005000050E060E671E082E691E00C94E1028091B7
:10051000950190E020919601821B91090895209108
:10052000960180919501281750F4E22FF0E0E956EA
:10053000FE4F808190E02F5F2093960108958FEF0A
:100540009FEF0895E091960180919501E81730F4AE
:10055000F0E0E956FE4F808190E008958FEF9FEF25
:1005600008950895E0916E01F0916F013097E1F0E8
:1005700030919601209195013217B0F040E0242F80
:1005800030E02617370754F4DC01A20FB31F5C914B
:10059000D901A956BE4F5C934F5FF1CF10929601DF
:1005A00060939501CB0109940895E0917001F09159
:1005B0007101309729F0109274011092730109941F
:1005C0000895CF92DF92EF92FF920F931F93CF93F4
:1005D000DF937C01CB018A0120917201222389F0F3
:1005E000EB016B01C40ED51ECC15DD0569F06991D8
:1005F000D701ED91FC910190F081E02DC7010995A3
:10060000F3CF642F0E949C03C801DF91CF911F910B
:100610000F91FF90EF90DF90CF900895CF93DF93ED
:100620001F92CDB7DEB76983209172012223D1F0EA
:1006300020917301203240F021E030E0FC0133834F
:10064000228380E090E015C080917401E82FF0E0F3
:10065000EB58FE4F998190838F5F80937401809354
:10066000730105C061E0CE0101960E949C0381E008
:1006700090E00F90DF91CF910895FC0113821282D8
:1006800048EE53E060E070E04483558366837783EF
:1006900084E291E0918380830895109296011092F4
:1006A000950110927401109273010C947A03CF9308
:1006B000DF93EC01862F0E94980385ED92E00E9463
:1006C000BA0382EB92E00E94B503CE01DF91CF9195
:1006D0000C944D030C94570370936F0160936E015B
:1006E00008957093710160937001089582E691E01E
:1006F0000C943D031092240281E080932202109218
:10070000210261E082E00E94680661E083E00E94CD
:100710006806E9EBF0E080818E7F808380818D7FA9
:10072000808388E48093B80085E48093BC000895BA
:10073000880F8093BA000895613298F420912402C2
:10074000243089F46093D901FC018BED91E0DC0148
:100750002A2F281B261718F421912D93F9CF80E01A
:10076000089581E0089582E0089590931E02809399
:100770001D0208959093200280931F02089585ED35
:100780008093BC008091BC0084FDFCCF10922402B9
:10079000089585EC8093BC001092240208951F9266
:1007A0000F920FB60F9211242F933F934F935F93A5
:1007B0006F937F938F939F93AF93BF93EF93FF9329
:1007C0008091B900887F803609F49CC068F5883232
:1007D00009F45BC090F4803109F454C038F48823E4
:1007E00009F4F5C0883009F44DC0F5C0883109F42A
:1007F0004CC0803209F45DC0EEC0803409F468C09A
:1008000048F4803309F455C0883309F0E4C080937C
:10081000B701A8C0803509F44FC0883509F45DC020
:10082000883409F0D8C0D5C0883909F4C6C0A8F406
:10083000883709F467C038F4883609F463C0803714
:1008400009F460C0C8C0883809F4B7C0803909F419
:100850005FC0803809F0BFC05BC0803B09F485C031
:1008600038F4803A09F466C0883A09F47EC0B3C00F
:10087000803C09F4A6C0883C09F4A3C0883B09F475
:1008800089C0A9C08091230210C09091FC01809181
:10089000FB01981770F5E091FC0181E08E0F8093C9
:1008A000FC01F0E0E350FE4F80818093BB0085ECBB
:1008B00085C08093B7018DC0E091FC0181E08E0F6F
:1008C0008093FC018091BB00F0E0E350FE4F8083F9
:1008D0009091FC018091FB016DC0E091FC0181E0F1
:1008E0008E0F8093FC018091BB00F0E0E350FE4F3F
:1008F00080838091220281116CC081E0809321026B
:1009000084EA60C083E0809324021092B801CFCFC4
:100910008091B801803208F050C0E091B80181E0C8
:100920008E0F8093B8018091BB00F0E0E754FE4F3A
:100930008083BDCF8091B801803230F4E091B8015E
:10094000F0E0E754FE4F10820E94BF036091B801AF
:1009500070E0E0911D02F0911E0289EB91E0099593
:100960001092B8010E94C90336C084E0809324022B
:100970001092DA011092D901E0911F02F091200249
:1009800009958091D901811105C081E08093D90139
:100990001092DB01E091DA0181E08E0F8093DA01A1
:1009A000F0E0E552FE4F80818093BB009091DA0128
:1009B0008091D901981708F47ACF85E88093BC001C
:1009C0000AC085EC8093BC001092240204C01092EF
:1009D000B7010E94BF03FF91EF91BF91AF919F912B
:1009E0008F917F916F915F914F913F912F910F90D8
:1009F0000FBE0F901F9018951F920F920FB60F9277
:100A000011242F933F938F939F93AF93BF93809124
:100A1000260290912702A0912802B09129023091DC
:100A2000250223E0230F2D3720F40196A11DB11DCF
:100A300005C026E8230F0296A11DB11D20932502B3
:100A40008093260290932702A0932802B093290254
:100A500080912A0290912B02A0912C02B0912D023C
:100A60000196A11DB11D80932A0290932B02A093A1
:100A70002C02B0932D02BF91AF919F918F913F9126
:100A80002F910F900FBE0F901F9018953FB7F894BD
:100A900080912A0290912B02A0912C02B0912D02FC
:100AA00026B5A89B05C02F3F19F00196A11DB11DC9
:100AB0003FBF6627782F892F9A2F620F711D811DE6
:100AC000911D42E0660F771F881F991F4A95D1F745
:100AD0000895CF92DF92EF92FF92CF93DF936B0155
:100AE0007C010E944605EB01C114D104E104F1042C
:100AF00089F00E947C0C0E9446056C1B7D0B683EB1
:100B0000734090F381E0C81AD108E108F108C85198
:100B1000DC4FEACFDF91CF91FF90EF90DF90CF9045
:100B200008958230910538F0880F991F880F991F1A
:100B300005970197F1F70895789484B5826084BD94
:100B400084B5816084BD85B5826085BD85B58160D1
:100B500085BDEEE6F0E0808181608083E1E8F0E031
:100B60001082808182608083808181608083E0E860
:100B7000F0E0808181608083E1E9F0E08081826043
:100B80008083808181608083E0E9F0E08081816002
:100B90008083E1ECF0E080818460808380818260EA
:100BA0008083808181608083E3ECF0E080818160DC
:100BB0008083E0ECF0E0808182608083E2ECF0E012
:100BC000808181608083EAE7F0E0808184608083B7
:100BD0008081826080838081816080838081806861
:100BE0008083089590E0FC013197EF30F105B0F576
:100BF000EA5AFF4F0C94090F809180008F7703C051
:100C0000809180008F7D8093800008958091800086
:100C1000877FF9CF84B58F7702C084B58F7D84BD7F
:100C20000895809190008F7707C0809190008F7D0C
:100C300003C080919000877F8093900008958091F9
:100C4000C0008F7703C08091C0008F7D8093C0006B
:100C500008958091C200877F8093C2000895CF934A
:100C6000DF9390E0FC01E851FF4F2491FC01EA5F23
:100C7000FE4F8491882349F190E0880F991FFC0171
:100C8000E05CFE4FA591B4918E5C9E4FFC01C59136
:100C9000D4919FB7611108C0F8948C91209582235C
:100CA0008C93888182230AC0623051F4F8948C912D
:100CB000322F309583238C938881822B888304C0C4
:100CC000F8948C91822B8C939FBFDF91CF910895E4
:100CD0000F931F93CF93DF931F92CDB7DEB7282FCB
:100CE00030E0F901E653FF4F8491F901E851FF4FDD
:100CF0001491F901EA5FFE4F04910023C9F08823A3
:100D000021F069830E94F2056981E02FF0E0EE0F87
:100D1000FF1FEE5CFE4FA591B4919FB7F8948C91A4
:100D2000611103C01095812301C0812B8C939FBF5B
:100D30000F90DF91CF911F910F9108950F931F9303
:100D4000762F90E0FC01E851FF4F6491FC01EA5FCF
:100D5000FE4FE4917111762FF0E0EE0FFF1FEC5D76
:100D6000FE4F8591949189019A013F70472F0E940F
:100D70009901611571058105910531F06F5F7F4F14
:100D80008F4F9F4F9F7003C060E070E0CB011F91B9
:100D90000F910895CF93DF931F92CDB7DEB769838C
:100DA000DC01ED91FC910280F381E02D41E050E007
:100DB000BE016F5F7F4F09950F90DF91CF9108952E
:100DC000CF93DF93EC018C859D8597FF05C082E072
:100DD0000E94A9099D878C878C859D85DF91CF9185
:100DE000089583E00C94FE0BFC018485958597FDA6
:100DF00006C082E00E94510990E00196089582E0C9
:100E00000E94510990E00895FC018485958597FD25
:100E100005C02FEF3FEF35872487089582E00C94BB
:100E2000A909CF93DF93EC0180910701882331F06A
:100E300083E00E94DA091816190634F081E090E088
:100E40009B838A8380E090E0DF91CF910895FC013D
:100E500020812E5F208342E450E06EE471E080E860
:100E60000C94750AFC0181819081913A59F4813288
:100E700009F03CC047E050E060E071E080E00E9493
:100E8000750A43C0913291F5803239F467E070E021
:100E900080E091E00E94A60A06C0823209F035C0C7
:100EA0008281809307018091000190910101A091BE
:100EB0000201B0910301803B9440A105B105C1F44A
:100EC0008091070180FD14C087E797E790930108A0
:100ED000809300082BE088E190E00FB6F894A89585
:100EE000809360000FBE209360000FC080E00895E3
:100EF00088E10FB6F89480936000109260000FBEF6
:100F0000A895109201081092000881E008952FEF33
:100F10003FEFFC013587248708951092310210922B
:100F2000300288EE93E0A0E0B0E08093320290932C
:100F30003302A0933402B093350284E391E090939E
:100F40002F0280932E028FEF9FEF90933B028093AE
:100F50003A02089508950E949C050E94AA078EE710
:100F600092E00E945E0C0E94DE01C0E0D0E00E9490
:100F700006022097E1F30E940000F9CFCF92DF92A2
:100F8000EF92FF920F931F93CF93DF936C017A013F
:100F9000EB01E60EF71E00E010E0CE15DF0561F074
:100FA0006991D601ED91FC910190F081E02DC6018F
:100FB0000995080F191FF1CFC801DF91CF911F913B
:100FC0000F91FF90EF90DF90CF900895611571051C
:100FD00081F0DB010D900020E9F7AD01415051098E
:100FE000461B570BDC01ED91FC910280F381E02D53
:100FF000099480E090E00895DC01ED91FC9101906E
:10100000F081E02D099460E471E00C94E6070F9301
:101010001F93CF93DF93EC010E94E6078C01CE0172
:101020000E940308800F911FDF91CF911F910F91B4
:1010300008958F929F92AF92BF92CF92DF92EF92DC
:10104000FF920F931F93CF93DF93CDB7DEB7A19796
:101050000FB6F894DEBF0FBECDBF7C01C42EE52FC6
:10106000CB01D22E19A221E02D1510F02AE0D22EAC
:101070008E010F5D1F4F8D2C912CA12CB12C6C2D4E
:101080007E2FA50194010E94E70E8C2DD29E80191F
:101090001124015011098A3014F4805D01C0895C6B
:1010A000F8018083211531054105510521F0C22E3B
:1010B000E32FCA01E4CFB801C7010E94E607A19659
:1010C0000FB6F894DEBF0FBECDBFDF91CF911F9159
:1010D0000F91FF90EF90DF90CF90BF90AF909F90D7
:1010E0008F900895CF92DF92EF92FF920F931F930C
:1010F000CF93DF93EC016A017B012115310579F46F
:10110000E881F9810190F081E02D642FDF91CF918A
:101110001F910F91FF90EF90DF90CF9009942A30AC
:101120003105E9F477FF1AC06DE20E94FC078C01DB
:1011300044275527BA014C195D096E097F092AE039
:10114000CE010E941908800F911FDF91CF911F914E
:101150000F91FF90EF90DF90CF9008952AE0B701B4
:10116000A601CE01DF91CF911F910F91FF90EF90DB
:10117000DF90CF900C9419089A01AB01662757FDB8
:101180006095762F0C9472082115310541F4DC012D
:10119000ED91FC910190F081E02D642F09940C9465
:1011A00019089A01462F50E060E070E00C94C408E2
:1011B00040918202509183022091800230918102FD
:1011C00042175307B4F49091E8009570E1F39091C1
:1011D000E80092FD19C08093F10080918202909105
:1011E000830201968F739927892B19F48EEF8093D0
:1011F000E80080918202909183020196909383028D
:101200008093820281E0089580E00895CF92DF927A
:10121000FF920F931F93CF93DF931F92CDB7DEB74B
:10122000082F162F862F880F8E5F99830E94D8086B
:1012300083E00E94D808F02EC02E9981D92E8C2DE3
:101240008F19811778F4F60184910E94D808082F2D
:1012500080E00E94D8088023FFEFCF1ADF0A8111B7
:10126000EECF01C081E00F90DF91CF911F910F91E0
:10127000FF90DF90CF900895615030F02091F10001
:10128000FC0120830196F8CF289884E6809385029C
:1012900008952FB7FC012083F89467706093E900EC
:1012A0000895CF93DF931F92CDB7DEB7682FCE019D
:1012B00001960E9449098091F20099819FBF0F9089
:1012C000DF91CF910895FF920F931F93CF93DF93F8
:1012D00000D0CDB7DEB7F62E8A0190918402992313
:1012E00011F057FF03C08FEF9FEF2BC0682FCE0187
:1012F00001967A830E9449098091F20090E0A8014A
:101300007A81801791070CF4AC01EF2DF72FF40EC2
:1013100084E6FE1639F02898809385029091F100BA
:101320009193F7CF4115510521F08091F200882368
:1013300021F089818FBFCA0104C08BE68093E80049
:10134000F8CF0F900F90DF91CF911F910F91FF90E9
:101350000895CF93DF931F92CDB7DEB741E050E001
:10136000BE016F5F7F4F0E946309019719F4898165
:1013700090E002C08FEF9FEF0F90DF91CF91089523
:10138000CF93DF931F92CDB7DEB7682FCE010196C2
:101390000E9449099091E800892F807295FF04C04E
:1013A0009091F20080E4891B99819FBF0F90DF919B
:1013B000CF9108956F927F928F929F92AF92BF923A
:1013C000CF92DF92EF92FF920F931F93CF93DF9311
:1013D0001F92CDB7DEB7782E7B01C42EB52E80913B
:1013E0008402882369F0042F152F8AEFD82E872DC9
:1013F0008072982E9AE3A92E872D8074882E11C0B2
:101400008FEF9FEF57C0872D0E94C009682E811172
:101410000CC0DA94A9F361E070E080E090E00E94F3
:1014200069050115110579F73BC0282F30E0021737
:1014300013070CF4602E672DCE0101960E94490916
:101440008091E80085FF29C0262D30E0021B130B98
:10145000992039F06A948FEF6816B1F01092F1007C
:10146000F9CFF701862D77FE07C0815058F094918F
:101470009093F1003196F9CF815020F091919093A3
:10148000F100FACFE20EF31E8091E80085FF0FC055
:101490000115110511F481100AC089818FBFC1CFD8
:1014A0005D9884E6809386028C2D9B2D03C0A092CC
:1014B000E800F3CF0F90DF91CF911F910F91FF9034
:1014C000EF90DF90CF90BF90AF909F908F907F90E4
:1014D0006F9008951092E900109283021092820298
:1014E00090938102809380020895CF92DF92FF92C1
:1014F0000F931F93CF93DF9300D0CDB7DEB7F82EB5
:101500008A016B0101151105B1F0F601F7FE02C069
:10151000849101C0808149835A830E94D808015078
:101520001109FFEFCF1ADF0A49815A818111EACFF1
:101530008FEF9FEF01C0CA010F900F90DF91CF9105
:101540001F910F91FF90DF90CF9008951F93CF933D
:10155000DF931F92CDB7DEB7162F2091E80022FF50
:10156000FCCF612F79830E943C098BEF8093E800C8
:10157000812F7981972F0F90DF91CF911F9108953F
:10158000CF93DF931F92CDB7DEB71982CE010196BC
:101590000E942707CE0101960E949B0C898190E052
:1015A0000F90DF91CF9108951F920F920FB60F9277
:1015B0001124EF92FF920F931F932F933F934F931A
:1015C0005F936F937F938F939F93AF93BF93EF93AB
:1015D000FF93CF93DF93CDB7DEB76297DEBFCDBF6A
:1015E0001092E9008091E80083FFEBC068E0CE0133
:1015F0000A960E943C0982EF8093E8009A8597FF43
:1016000005C08091E80080FFFCCF03C08EEF80937F
:10161000E800892F807609F0B9C08B85811105C05B
:101620001092F1001092F100C5C0282F2D7F2130BB
:1016300009F4C0C0853049F48091E80080FFFCCFF8
:101640008C8580688093E300B5C0863009F076C051
:101650002D85E888F988223071F580E090E02A8BAA
:101660000E946A0A0E94C00A99E08E010F5F1F4F14
:10167000F801392F11923A95E9F799832A892A833B
:1016800091E09E8390E898879AEF99872091820253
:1016900030918302275F3F4F3C832B838D83C701AB
:1016A0000E946A0A49E050E0B80180E00E94750A91
:1016B0000E94C00A7FC0C7012A8B0E946A0A2A8939
:1016C000223241F482E290E00E94A60C892B09F0BC
:1016D00071C074C0213069F488899989089711F420
:1016E00020937F0280917F02811118C067EA71E028
:1016F0001AC0233009F062C08C85882391F08230B3
:1017000021F460E185EC91E006C0813009F056C01B
:101710006BE089EB91E00E9406094AC065E971E03F
:1017200002C066ED71E06115710509F447C0FB0167
:10173000449150E080E80E94750A3CC0873009F46B
:101740003DC0883021F481E08093F10033C08930BE
:1017500089F5937099F5E1E9F1E081E021E096E304
:101760008093E9002093EB0034913093EC00909348
:10177000ED008F5F3196853099F78EE78093EA0010
:101780001092EA008C858093840214C0888999891C
:101790000E946A0A8E85811105C0CE010A960E94B8
:1017A000320706C0823051F4CE010A960E94CE0C58
:1017B000882321F08EEF8093E80003C081E28093BC
:1017C000EB0062960FB6F894DEBF0FBECDBFDF917F
:1017D000CF91FF91EF91BF91AF919F918F917F91A9
:1017E0006F915F914F913F912F911F910F91FF90BA
:1017F000EF900F900FBE0F901F9018958093E90007
:101800008091F200882319F08AE38093E80008951C
:101810001F920F920FB60F9211242F933F934F9365
:101820005F936F937F938F939F93AF93BF93EF9348
:10183000FF938091E1001092E10083FF0FC01092AE
:10184000E90091E09093EB001092EC0092E390930A
:10185000ED001092840298E09093F00082FF1DC08A
:1018600083E00E94FE0B80918602882339F08091EC
:101870008602815080938602882369F080918502D8
:10188000882359F0809185028150809385028111CF
:1018900004C0289A02C05D9AF1CFFF91EF91BF91E9
:1018A000AF919F918F917F916F915F914F913F91F8
:1018B0002F910F900FBE0F901F90189510928402D9
:1018C00081E08093D70080EA8093D80082E189BDCF
:1018D00009B400FEFDCF61E070E080E090E00E947E
:1018E000690580E98093D8008CE08093E200109233
:1018F000E000559A209A08950895FF920F931F9340
:10190000CF93DF93EC01F62EE881F9810480F58115
:10191000E02D09958C01E881F9810680F781E02DA1
:101920006F2DCE010995C8019927DF91CF911F91A5
:101930000F91FF900895FC0120812F5F208349E1E2
:1019400050E06AE572E080E80C94750A45E650E0E4
:1019500063E772E080E80C94750AEF92FF920F93B0
:101960001F93CF93DF931F92CDB7DEB789838B018F
:101970007A0141E050E0BE016F5F7F4F84E00E943A
:10198000DA09A701B80184E40E94DA090F90DF9117
:10199000CF911F910F91FF90EF900895FC019181DD
:1019A0008081813A31F481E0913091F0933089F473
:1019B00011C0813271F49B3021F48281809309013E
:1019C00005C09A3031F482818093080181E0089546
:1019D000089580E0089548E050E082E00C94AD0C5A
:1019E000CF93DF93DC01683818F0E8E7E60F25C0F5
:1019F000E62FF0E067FF11C0E058F10981E090E0C8
:101A000001C0880FEA95EAF714969C911497982BD9
:101A100014969C931497E0E010C0E652FE4FE491B8
:101A2000EE2309F440C0E7FF08C014968C91149788
:101A3000826014968C931497EF7716968C91169774
:101A40008E1741F117968C9117978E1719F11896EA
:101A50008C9118978E17F1F019968C9119978E1713
:101A6000C9F01A968C911A978E17A1F01B968C913B
:101A70001B978E1779F080E090E0ED01C80FD91F19
:101A80002E81211102C0EE8305C00196863091059A
:101A9000A1F709C0BD016C5F7F4FCD010E94EB0C27
:101AA00081E090E008C081E090E013969C938E93D3
:101AB000129780E090E0DF91CF910895683818F098
:101AC000E8E7E60F25C0E62FF0E067FF12C0E05818
:101AD000F10921E030E001C0220FEA95EAF72095F4
:101AE000DC0114963C911497322314963C93E0E069
:101AF0000FC0E652FE4FE491EE2329F1E7FF08C044
:101B0000DC0114962C9114972D7F14962C93EF776B
:101B100020E030E0EE2351F0DC01A20FB31F169657
:101B20004C9116974E1302C016961C922F5F3F4F92
:101B30002630310579F7BC016C5F7F4F0E94EB0CBA
:101B400081E090E0089580E090E00895FC01168225
:101B5000178210861186128613861482BC016C5F70
:101B60007F4F0C94EB0C1092930210928A02109209
:101B7000890285E591E09093880280938702089519
:101B80000CD0EBC0E3D040F0DAD030F021F45F3F6E
:101B900019F0CCC0511115C1CFC0F0D098F39923E2
:101BA000C9F35523B1F3951B550BBB27AA27621721
:101BB0007307840738F09F5F5F4F220F331F441F66
:101BC000AA1FA9F333D00E2E3AF0E0E830D091509E
:101BD0005040E695001CCAF729D0FE2F27D0660F8B
:101BE000771F881FBB1F261737074807AB07B0E8CA
:101BF00009F0BB0B802DBF01FF2793585F4F2AF0E0
:101C00009E3F510568F092C0DCC05F3FECF3983E08
:101C1000DCF3869577956795B795F7959F5FC9F73C
:101C2000880F911D9695879597F90895E1E0660FC5
:101C3000771F881FBB1F621773078407BA0720F03E
:101C4000621B730B840BBA0BEE1F88F7E0950895A7
:101C500004D06894B111B5C0089598D088F09F570A
:101C600090F0B92F9927B751A0F0D1F0660F771FE8
:101C7000881F991F1AF0BA95C9F712C0B13081F0C8
:101C80009FD0B1E008959CC0672F782F8827B85F58
:101C900039F0B93FCCF3869577956795B395D9F729
:101CA0003EF490958095709561957F4F8F4F9F4F33
:101CB0000895E89409C097FB3EF49095809570953F
:101CC00061957F4F8F4F9F4F9923A9F0F92F96E988
:101CD000BB279395F695879577956795B795F111FD
:101CE000F8CFFAF4BB0F11F460FF1BC06F5F7F4F9A
:101CF0008F4F9F4F16C0882311F096E911C07723AC
:101D000021F09EE8872F762F05C0662371F096E8B4
:101D1000862F70E060E02AF09A95660F771F881F83
:101D2000DAF7880F9695879597F9089597F99F6741
:101D300080E870E060E008959FEF80EC0895002453
:101D40000A941616170618060906089500240A9420
:101D500012161306140605060895092E0394000CA6
:101D600011F4882352F0BB0F40F4BF2B11F460FF35
:101D700004C06F5F7F4F8F4F9F4F089557FD90585E
:101D8000440F551F59F05F3F71F04795880F97FB3F
:101D9000991F61F09F3F79F08795089512161306F9
:101DA0001406551FF2CF4695F1DF08C01616170628
:101DB0001806991FF1CF869571056105089408955D
:101DC000E894BB2766277727CB0197F90895A1E20E
:101DD0001A2EAA1BBB1BFD010DC0AA1FBB1FEE1FA5
:101DE000FF1FA217B307E407F50720F0A21BB30BF0
:101DF000E40BF50B661F771F881F991F1A9469F76C
:101E000060957095809590959B01AC01BD01CF01C7
:101E10000895EE0FFF1F0590F491E02D0994F894BA
:021E2000FFCFF2
:101E220000E10000000000000101537461727400BF
:101E32002C2000206D6D00524553504F4E534500EB
:101E4200000000000E03E10287028F02A202B1022B
:101E520000000000CA061107F4060407E006F106B6
:101E62000D0A006E616E00696E66006F7666002E66
:101E720000000000007D0CBE07F00C5E0DA60D00F8
:00000001FF
